:020000006D2D64
:10000600243083120313FC00B530FD00FD0B0928D4
:0A001600FC0B0928000000000800A0
:0E002000533083120313FD00FD0B142808005B
:0C002E00000000000000000000000800BE
:0E003A008312031366088A006508820008001E
:1000480083160313D81B2B28831286112D2883129D
:1000580086158316581B33288312061135288312F8
:1000680006158316D81A3B28831286103D2883125A
:1000780086148316581A43288312061045288312BB
:1000880006146718492806164A28061286161720E5
:1000980086128316D819532883128611552883127D
:1000A8008615831658195B28831206115D2883125A
:1000B80006158316D81863288312861065288312BC
:1000C8008614831658186B28831206106D2883121D
:1000D8000614671871280616722806128616172045
:0E00E8008612671C792803207A281020080051
:1000F600A02883120313E8158316D80A0319D90A10
:10010600F228831268148316D80A0319D90AF2282A
:100116008312E8148316D80A0319D90AF22883121F
:10012600E9158316D80A0319D90AF2288312681525
:100136008316D80A0319D90AF22883160313580816
:100146008312E500831659088312E6001D208A11E2
:100156000A12F10071082D3A03197C2883165808F3
:100166008312E500831659088312E6001D208A11C2
:100176000A12F1007108203A0319842883165808D8
:100186008312E500831659088312E6001D208A11A2
:100196000A12F10071082B3A03198B2883165808A6
:1001A6008312E500831659088312E6001D208A1182
:1001B6000A12F1007108233A031992288316580887
:1001C6008312E500831659088312E6001D208A1162
:1001D6000A12F1007108303A03199928F3287B288E
:1001E6008312E81CF7286810E81DFA2868118316A0
:0A01F6005808F0005908F100080055
:10020000831603135808393C031C0D29303058025B
:0E021000031C0D290130F0000E29F00108003A
:10021E0083120313FB01FA01F9018030F800F10C8F
:10022E00F00C031C23297408F90775080318750FC1
:10023E00FA070318FB0A0310F01F2B297408FA079C
:10024E0075080318750FFB07FB0CFA0CF90CF80C6C
:10025E00031C16297B08F3007A08F2007908F100D6
:06026E007808F000080012
:08027400FA1FF213003008002C
:10027C0083120313F801F9011030FC00710DF80D15
:10028C00F90D7408F8027508031C750FF9020318B0
:10029C0056297408F80775080318750FF907031029
:0A02AC00F00DF10DFC0B44290800D1
:1002B60083120313681DC129E81C7329681C66296B
:1002C6002D30F30068292B30F3008316580884007C
:1002D60073088000D80A8312EB0A0319EC0AA929CD
:1002E600681C802983165808840020308000D80AAC
:1002F6008312EB0A0319EC0AA929C0306805F1003C
:1003060069080839F2007208083A031D8C29803002
:100316007106031DA9298316580884003030800011
:10032600D80A8312EB0A0319EC0AE81E9D295830F5
:10033600F4009F297830F400831658088400740866
:100346008000D80A8312EB0A0319EC0A83163108D7
:1003560032040319C0295808840030308000D80AB6
:100366008312EB0A0319EC0A01308316B102031C4F
:10037600B20331083204031DAE293F2A8316310821
:1003860032040319DC298312E819DC29831658087C
:10039600840020308000D80A8312EB0A0319EC0A85
:1003A60001308316B102031CB20331083204031D67
:1003B600C9298312E81CF129681CE4292D30F500AF
:1003C600E6292B30F500831658088400750880004E
:1003D600D80A8312EB0A0319EC0AFD29681CFD29C9
:1003E60083165808840020308000D80A8312EB0A4E
:1003F6000319EC0AC0306805F10069080839F200F3
:100406007208083A031D092A40307106031D162A90
:1004160083165808840030308000D80A8312EB0A0D
:100426000319EC0A3F2AC0306805F100690808394B
:10043600F2007208083A031D222A80307106031D55
:100446003F2A83165808840030308000D80A831269
:10045600EB0A0319EC0AE81E332A5830F600352A4F
:100466007830F60083165808840076088000D80A8B
:100476008312EB0A0319EC0A83128030F0008030F5
:100486006E067002031D492A6D086A020318562A71
:1004960083165808840030308000D80A8312EB0A8D
:0E04A6000319EC0A3F2A83165808F0000800DC
:1004B4007B15FB1F642A0130F300F201F101F00106
:0804C400FA0DF20CFF300800F4
:0E04CC00F201F101F001F801F3010030080027
:1004DA00A0017208031D822A7108F2007008F10057
:1004EA00F001A0157208031D822A7108F200F101B9
:1004FA00A011201672080319902A2008F302031D7E
:10050A00031C942A0310F21B982AF00DF10DF20D28
:10051A00F30B882A942A0130FC0066229B2A0230B7
:0E052A00FC005A229B2A0430FC003A210800F3
:1005380083120313671083165008D8002420671409
:020548000800A9
:10054A00243083120313FD00FD0BA92A00000800C2
:10055A00FB14FB1FB72AFF30F300F200F100F00092
:08056A00FA0DF20CFF3008004D
:06057200FB15FF3008003C
:100578007B14FB1FC72AF201FA1FFF30F200F100BB
:0A058800F000FA0DF20CFF3008003D
:10059200831203137408003A031DE42A7508003A13
:1005A200031DE42A7608003A031DE42A7708003A7C
:1005B200031DE42AFF30F000FF30F1007F30F2002B
:1005C200FF30F3007F2B8312031377080319732B79
:1005D20073080319762B720876068039FA00F2172F
:1005E200F617A0017208F8007108FC007008FD00FF
:1005F2007408FD027508031C750FFC027608031CC3
:10060200760FF802F801FC01FD01031C0F2B031009
:10061200F20CF10CF00CF80C0130A0007708F30298
:10062200031C192B7E302007F3070318792B1E2B8E
:100632007E302007F307031C7C2B1830FA07FD0DD0
:10064200FC0DF80DF00DF10DF20DA00D7408F00285
:100652007508031C750FF1027608031C760FF2026F
:10066200760DA004201C372B7D14422B7408F00752
:1006720075080318750FF10776080318760AF20752
:100682007D10FA031F307A05031D202B7B1B7D1C76
:10069200692B0310F00DF10DF20DA00D7408F0029C
:1006A2007508031C750FF1027608031C760FF2021F
:1006B200760D20040139FD070318FC0A0319F80A14
:1006C200031D692BF80CFC0CFD0CF30A0319792BA2
:1006D200FA1FF8137808F2007C08F1007D08F00098
:1006E20000307E2B0130B9227E2B023066227E2B17
:0E06F2000430AD227E2B08305A220000080092
:10070000831203137008F8007108F000F101F20180
:10071000F301FB01FC019630F300FA017008F100CF
:0C0720007808F000F801F2016D220800DA
:10072C001D208A110A128000840AE50A0319E60AC0
:08073C00F003031D962B0800D9
:1007440083120313F101F20100307202031DAC2B7A
:10075400323071020318BC2B07150730FC007D30C2
:10076400FD00FD0BB32BFC0BB32B0711F10A03198E
:06077400F20AA62B0800AA
:10077A0083160313861206120610861006118611B6
:10078A00831286120612861106118610061003209D
:10079A0003200320861406148616172086120320C7
:1007AA008616172086120320861617208612032023
:1007BA000610861617208612032086161720861220
:1007CA0086108615861617208612032086110614AF
:1007DA008616172086120610861617208612032000
:1007EA0086161720861206148616172086120320EC
:1007FA000610861617208612861506158614061404
:0C080A00861617208612032067140800D1
:10081600831203139F01C0309F043209F000700851
:1008260083169F051F179F174808F000F00D7010DC
:10083600F00D7010F00D7010700883129F041F14D5
:10084600A5221F151F1D292C0000252C1F101E0870
:10085600F100F00183161E08F0040030F1040800D0
:10086600CB3083160313CF004808D0004908D100C7
:100876004A08D200CF30D3008A1500208A117008AA
:100886008316CD007108CE007008480784008001E9
:0A0896004D08F0004E08F1000800C4
:1008A00083120313FB01730803198D2C7208FA00DD
:1008B000F2178E30F302F31F902CF309F30A08307D
:1008C0007302031C732CF300F10D7208F100F201A6
:1008D00008307302031C732CF300F10DF10173084F
:1008E000031D03107B2C730803197B2C0310F20CDF
:1008F000F10CF30B762C7B1B711C852C031C852CB7
:10090000F10A0319F20AF21B9C2CFA1F9F2CF20920
:10091000F109F10A0319F20A9F2CF201F1019F2C4F
:100920007B14FB1FA22CF201FA1FA22CFF30F20055
:10093000F100FA0DF20CA22C0130FC00A42C0030C6
:10094000FC00A42CFF30FC00FC080319A82CBC22DE
:0A0950007108F0007208F1000800C1
:10095A0083120313F101F20100307202031DB72C56
:10096A00323071020318C82C07150A30FC00BC305B
:10097A00FD00FD0BBE2CFC0BBE2C00000711F10A7A
:08098A000319F20AB12C080068
:1009920083120313FB017308031D77080319202D2B
:1009A20072087606FA007708F3077E30031CDD2C06
:1009B200F3020318232DE02CF302031C262D7208E8
:1009C200F8007108FC007008FD00F817F617031014
:1009D200F201F101F0011830A0007D1CFA2C74081C
:1009E200F00775080318750FF10776080318760FDC
:1009F200F207F20CF10CF00CF80CFC0CFD0C0310DD
:100A0200A00BEE2CF21B0A2DF80DF00DF10DF20DDC
:100A1200F3037B1B701C1C2DF81F1C2DF00A0319FD
:100A2200F10A0319F20A031D1C2DF20CF10CF00C51
:100A3200F30A0319232DFA1FF2130030282D013077
:100A42006622282D0230AD22282D04305A220000C1
:020A520008009A
:100A54003C2D803083160313C8004F2DC030C800CE
:100A64004F2D9430C8004F2DD430C8004F2D803006
:100A7400C8004F2D831603134808013A03192B2D80
:100A84004808023A0319302D4808033A0319332D54
:100A94004808043A0319362D392D4903F000480853
:100AA400F0077008C8007008D80024206710831667
:100AB400CB014B084A078400000803196A2D4B0830
:100AC4004A0784000008D0009C228316CB0A5B2DC1
:060AD40083126714080004
:100ADA00362783120313EF018316C501C601C70126
:100AEA0080309F00BD2301308316D80024200C30AB
:100AFA008316D800242083160814081505148510B7
:100B0A00051588138701A22302308316C8000B2417
:100B1A0080230030F400C030F5007F30F6008830C2
:100B2A00F700C9220030F4000030F5002030F6004A
:100B3A008130F700C9240030F4000030F500483055
:100B4A00F6008530F700C924502470088316B300D4
:100B5A007108B4008030F200803071067202031D01
:100B6A00B82D70083C3C0318CB2D0130C800013069
:100B7A00C9003330CA002A2502308316C800013062
:100B8A00C9003F30CA002A258817EA2D8312881324
:100B9A008316C8010B2402307102031DD62D0030C2
:100BAA0070020318E12D0130C8000130C900A030DD
:100BBA00CA002A258510EA2D01308316C8000130A3
:100BCA00C9004F30CA002A258514003008180130A0
:100BDA00EF006F08013A031D052E83164508003AF7
:100BEA00031D052E83123108003C031DFE2D30081B
:100BFA00003C0318052E0130B002031CB103AD24DA
:100C0A0083126F088316C500003083120819013059
:100C1A008316C6004608013A031D242E4708003AE7
:100C2A00031D242E003083123102031D1E2E0330B1
:100C3A0030020318242EB00A0319B10AAD24831610
:100C4A004608C70083126F08003A031D322E831626
:100C5A004608003A031D322EA2238030F00080306D
:100C6A00831634067002031D3C2E33083C3C031CD9
:100C7A005E2E83123108003C031D452E3008003CCD
:100C8A0003185E2EB5308316C8000130C90007303C
:100C9A00CA00831230088316CB00831231088316E8
:100CAA00CC0033240230C8000130C900B530CA0074
:100CBA002A25831200303106031D652E00303006C6
:100CCA00031D7A2E8030F0008030831634067002BD
:100CDA00031D712E33083C3C031C7A2E0230C800D7
:100CEA000130C9002130CA002A250630FB00133022
:100CFA00FC00AD30FD00FD0B802EFC0B802EFB0BA3
:0A0D0A00802E00000000892D892EC4
:100E6C00213084003F3083120313F0008F30E500F3
:100E7C000630E6009623A030840011300313F000F6
:100E8C00F030E5000630E600962360308400053033
:100E9C000313F0003030E5000730E600962308001D
:1010000083120313EB01EC01E801E9018316510897
:10101000F0005208F100D10A0319D20A70088312B5
:10102000E5007108E6008A111D208A150A12F000F9
:101030007008EA0070080319432D6A08253A03195D
:101040002E2883165008840083126A0880008316B5
:10105000D00A8312EB0A0319EC0A06288316B101A1
:10106000B2018312E801E90183165108D800520841
:10107000D9008A117B208A157008D1007108D2002E
:1010800070088312E5007108E6008A111D208A1598
:101090000A12F0000030F10070088316D8008A119F
:1010A00000218A15700803199628B101B201310890
:1010B000F0003208F1000A30F4000030F5008A1127
:1010C0000F218A15831651088312E50083165208F2
:1010D0008312E6008A111D208A150A12F200720896
:1010E00070078316B10071080318013EB20030305A
:1010F000B102031CB203D10A0319D20A51088312A8
:10110000E500831652088312E6008A111D208A1515
:101110000A12F0000030F10070088316D8008A111E
:1011200000218A157008031D5728BE285108831214
:10113000E500831652088312E6008A111D208A15E5
:101140000A12F10071082A3A031DBE2883165308BB
:1011500084000008F000700884000008B100840AD0
:101160000008B2005308840002300007F000530862
:10117000840070088000D10A0319D20A831651082E
:101180008312E500831652088312E6008A111D209F
:101190008A150A12F10071082E3A031D432983169D
:1011A000D10A0319D20A51088312E50083165208A6
:1011B0008312E6008A111D208A150A12F1007108B7
:1011C0002A3A031DFE288316530884000008F00005
:1011D0007008840000088312ED00840A0008EE0005
:1011E00083165308840002300007F000530884007F
:1011F00070088000D10A0319D20A42298312ED0136
:10120000EE01831651088312E500831652088312FB
:10121000E6008A111D208A150A12F0000030F10044
:1012200070088316D8008A1100218A1570080319E6
:10123000422983126D08F0006E08F1000A30F400B4
:101240000030F5008A110F218A1583165108831288
:10125000E500831652088312E6008A111D208A15C4
:101260000A12F20072087007ED0071080318013EBF
:10127000EE003030ED02031CEE038316D10A031991
:10128000D20A012946298312ED01EE018316510885
:10129000F0005208F100D10A0319D20A7008831233
:1012A000E5007108E6008A111D208A150A12EA007D
:1012B000382A6B08F0006C08F100482D6817692A7D
:1012C000692AE816E817692A83165308840000087B
:1012D000F000700884000008D40053088400000A5D
:1012E000F00053088400700880005408003A031D81
:1012F0007B296030D400D501D601550854078400FD
:101300000008031990295508013EF0000030031829
:10131000013E5607F1007008D5007108D6007D29FE
:1013200083126D086E040319A829831656088312C8
:101330006E02031D9F298316550883126D02031840
:10134000A8296D088316D50083126E088316D6006F
:10135000831632085602031DAF29310855020318BF
:10136000B8295508B102031CB2035608B202BA29C3
:10137000B101B2018312E819D42983163108F000B3
:101380003208F1000130B102031CB203700871048D
:101390000319D4295008840020308000D00A831219
:1013A000EB0A0319EC0ABD2983165508F20056080A
:1013B000F30001305502F0000030031C013E5602DC
:1013C000F1007008D5007108D60072087304031983
:1013D000FB29540884000008F000500884007008BD
:1013E0008000D00A540AF0007008D4008312EB0A7F
:1013F0000319EC0AD4298312E81D152A8316310833
:10140000F0003208F1000130B102031CB203700891
:1014100071040319152A5008840020308000D00A76
:101420008312EB0A0319EC0AFE29062883165308D7
:1014300084000008F0007008840000088312EA00AD
:1014400083165308840002300007F000530884001C
:101450007008800083166A30D4000130D500003057
:10146000D6009029C0308312E8040030E904692ACC
:101470006A08003A031959296A086C3A03195E2967
:101480006A084C3A03195E296A086F3A03195E2903
:101490006A08643A031960296A08693A03196029DD
:1014A0006A08703A031961296A08583A03196129D0
:1014B0006A08783A031962296A08733A0319642999
:1014C0006A08633A0319162A6A08753A0319322A18
:1014D0002A2AC0306805F1006908F2000030F205E0
:1014E00000307206031D762A00307106031DAB2AF8
:1014F0008316530884000008F00070088400000878
:10150000D400840A0008D500530884000230000784
:10151000F000530884007008800080305506F00009
:1015200080307002031D962A003054020318AA2A44
:1015300003308312E8040030E90483165408003CA9
:10154000F0005508031C013EF101F1027008D400BF
:101550007108D500C02A8316530884000008F000E3
:10156000700884000008D400840A0008D5005308DD
:10157000840002300007F0005308840070088000E7
:10158000003083126E06031DC72A00306D06031D4E
:10159000D62A003083165506031DD02A0030540683
:1015A000031DD62A8312ED0A0319EE0A8312C030F6
:1015B0006805F0007008F400732B83120130EA0014
:1015C0006A08053A03190E2B6A08F000F101F00DC4
:1015D000F10D70101E30F00707300318013EF107BF
:1015E0007008E5007108E6008A111D208A150A12AC
:1015F000F200E50A0319E60A8A111D208A150A126B
:10160000F300730883165502031D082B7208540259
:1016100003180B2B0E2B8312EA0AE02A832B83126A
:101620000130EA006A08043A0319402B6A08F00006
:10163000F101F00DF10D70102830F007073003189C
:10164000013EF1077008E5007108E6008A111D20CF
:101650008A150A12F200E50A0319E60A8A111D200A
:101660008A150A12F300730883165502031D3A2BDC
:101670007208540203183D2B402B8312EA0A122BE6
:10168000832B83120130EA006A08063A0319722B91
:101690006A08F000F101F00DF10D70101230F00742
:1016A00007300318013EF1077008E5007108E600F5
:1016B0008A111D208A150A12F200E50A0319E60AAA
:1016C0008A111D208A150A12F30073088316550229
:1016D000031D6C2B7208540203186F2B722B83129C
:1016E000EA0A442B832B7408003A0319DD2A740894
:1016F000C03A0319DD2A7408803A03190F2B7408C5
:10170000403A0319412B83128030F00080306E067E
:101710007002031D8D2B6D086A020318922B6D0851
:10172000EA00A02B80306E06F00080307002031DAE
:101730009B2B6A086D020318A02B6A08ED00EE01CE
:101740008316310832040319B62B0330831268055F
:10175000F0006908F1000030F10570087104031908
:10176000B62B01308316B102031CB2038030831202
:101770006E06F0008030831632067002031DC32B04
:10178000310883126D020318D02B83126D08831663
:10179000B102031CB20383126E088316B202D32B6C
:1017A0008316B101B201C43083126805F1006908E3
:1017B0000839F2007208083A031DE02B4030710628
:1017C000031DEC2B8316310832040319EB2B013077
:1017D000B102031CB2030E2CC03083126805F10065
:1017E00069080839F2007208083A031DF92B8030A5
:1017F0007106031D0E2C8030F000803083163206F7
:101800007002031D052C3108023C03180C2C023019
:10181000B102031CB2030E2CB101B20183165008B1
:10182000D8008A115B218A157008D00083126D08D8
:10183000F0006E08F1000130ED02031CEE037008A9
:1018400071040319222DC0306805F000700883165A
:10185000D700042D83126D08F0006E08F100F00D22
:10186000F10D70101E30F00707300318013EF1072C
:101870007008E5007108E6008A111D208A150A1219
:10188000F400E50A0319E60A8A111D208A150A12D6
:10189000F50083165408F0005508F1008A113E2126
:1018A0008A150A30F4000030F5008A113E218A15AD
:1018B0007808F0007908F10030307007EA00152D43
:1018C0008312E81E9D2C6D08F0006E08F100F00DEB
:1018D000F10D70102830F00707300318013EF107B2
:1018E0007008E5007108E6008A111D208A150A12A9
:1018F000F400E50A0319E60A8A111D208A150A1266
:10190000F50083165408F0005508F1008A113E21B5
:101910008A150F30F0050030F105CE30F0070630A3
:101920000318013EF1077008E5007108E6008A110E
:101930001D208A150A12EA00D62C6D08F0006E08E8
:10194000F100F00DF10D70102830F007073003188A
:10195000013EF1077008E5007108E6008A111D20BC
:101960008A150A12F400E50A0319E60A8A111D20F5
:101970008A150A12F50083165408F0005508F10084
:101980008A113E218A150F30F0050030F105DF3055
:10199000F00706300318013EF1077008E5007108F2
:1019A000E6008A111D208A150A12EA00152D8312FD
:1019B0006D08F0006E08F100F00DF10D701012309E
:1019C000F00707300318013EF1077008E5007108C1
:1019D000E6008A111D208A150A12F400E50A03198F
:1019E000E60A8A111D208A150A12F500831654088A
:1019F000F0005508F1008A113E218A150730700564
:101A0000EA003030EA07152D83165708003A03190B
:101A10002A2C5708C03A03192A2C5708803A031970
:101A2000602C5708403A0319D72C831650088400BD
:101A300083126A0880008316D00A8312EB0A031906
:101A4000EC0A162CE81D422D8030F0008030831601
:101A500032067002031D2E2D3108003C0318422D62
:101A60005008840020308000D00A8312EB0A03194A
:101A7000EC0A01308316B102031CB20331083204B0
:101A8000031D302D062883126B08F0006C08F1004E
:021A900008004C
:100D1E004E346F34203470346C3461346334653443
:0E0D2E00733420346C3465346634743400340D
:040D3C000334003448
:020D40000F346E
:100D42005734613472346E3469346E34673421340A
:080D5200213421342134003466
:100D5A0050346C346534613473346534203465340A
:100D6A0076346134633475346134743465340034F0
:100D7A004E3469346734683474342034203420346F
:100D8A0020342034203420342034203420342034B9
:020D9A00003423
:100D9C00303431343234333434343534363437340B
:100DAC003834393441344234433444344534463491
:020DBC00003401
:100DBE0030343134323433343434353436343734E9
:100DCE0038343934613462346334643465346634AF
:020DDE000034DF
:100DE0004D346F3472346E3469346E346734203469
:100DF0002034203420342034203420342034203453
:020E00000034BC
:100E020041347634613469346C34613462346C3424
:100E120065343A3420342534753420342034203477
:020E220000349A
:100E240001340034083400344034003400340234D3
:080E3400003410340034803456
:100E3C00013400340A34003464340034E8340334AC
:040E4C001034273403
:100E500001340034103400340034013400341034D0
:0A0E60006E3475346C346C340034C9
:02400E004A2F37
:00000001FF
